{
	"data": {
		"bytecode": {
			"linkReferences": {},
			"object": "608060405234801561000f575f80fd5b506116858061001d5f395ff3fe608060405234801561000f575f80fd5b506004361061004a575f3560e01c80635a9ac43f1461004e5780637393eeb414610080578063b2f6fe6f146100b0578063bf773100146100cc575b5f80fd5b61006860048036038101906100639190610a43565b6100fc565b60405161007793929190610b89565b60405180910390f35b61009a60048036038101906100959190610a43565b61024c565b6040516100a79190610be6565b60405180910390f35b6100ca60048036038101906100c59190610df3565b61040c565b005b6100e660048036038101906100e19190610df3565b61074e565b6040516100f39190610e8a565b60405180910390f35b5f602052805f5260405f205f91509050805f01805461011a90610ed0565b80601f016020809104026020016040519081016040528092919081815260200182805461014690610ed0565b80156101915780601f1061016857610100808354040283529160200191610191565b820191905f5260205f20905b81548152906001019060200180831161017457829003601f168201915b505050505090806001015f9054906101000a900473ffffffffffffffffffffffffffffffffffffffff16908060020180546101cb90610ed0565b80601f01602080910402602001604051908101604052809291908181526020018280546101f790610ed0565b80156102425780601f1061021957610100808354040283529160200191610242565b820191905f5260205f20905b81548152906001019060200180831161022557829003601f168201915b5050505050905083565b5f805f80846bffffffffffffffffffffffff19166bffffffffffffffffffffffff191681526020019081526020015f206040518060600160405290815f8201805461029690610ed0565b80601f01602080910402602001604051908101604052809291908181526020018280546102c290610ed0565b801561030d5780601f106102e45761010080835404028352916020019161030d565b820191905f5260205f20905b8154815290600101906020018083116102f057829003601f168201915b50505050508152602001600182015f9054906101000a900473ffffffffffffffffffffffffffffffffffffffff1673ffffffffffffffffffffffffffffffffffffffff1673ffffffffffffffffffffffffffffffffffffffff16815260200160028201805461037b90610ed0565b80601f01602080910402602001604051908101604052809291908181526020018280546103a790610ed0565b80156103f25780601f106103c9576101008083540402835291602001916103f2565b820191905f5260205f20905b8154815290600101906020018083116103d557829003601f168201915b50505050508152505090505f815f01515111915050919050565b6041825114610450576040517f08c379a000000000000000000000000000000000000000000000000000000000815260040161044790610f4a565b60405180910390fd5b5f805f602085015192506040850151915060608501515f1a9050601b8160ff16101561048657601b816104839190610fa1565b90505b601b8160ff16148061049b5750601c8160ff16145b6104da576040517f08c379a00000000000000000000000000000000000000000000000000000000081526004016104d19061101f565b60405180910390fd5b5f866040516020016104ec91906110c1565b6040516020818303038152906040528051906020012090505f6001828487876040515f81526020016040526040516105279493929190611109565b6020604051602081039080840390855afa158015610547573d5f803e3d5ffd5b5050506020604051035190508573ffffffffffffffffffffffffffffffffffffffff168173ffffffffffffffffffffffffffffffffffffffff16146105c1576040517f08c379a00000000000000000000000000000000000000000000000000000000081526004016105b890611196565b60405180910390fd5b5f8888886040516020016105d793929190611233565b6040516020818303038152906040528051906020012090505f606082901b90505f60405180606001604052808c81526020018a73ffffffffffffffffffffffffffffffffffffffff1681526020018b8152509050805f80846bffffffffffffffffffffffff19166bffffffffffffffffffffffff191681526020019081526020015f205f820151815f01908161066d919061140d565b506020820151816001015f6101000a81548173ffffffffffffffffffffffffffffffffffffffff021916908373ffffffffffffffffffffffffffffffffffffffff16021790555060408201518160020190816106c99190611534565b50905050816bffffffffffffffffffffffff19168973ffffffffffffffffffffffffffffffffffffffff168b6040516107029190611603565b60405180910390207fd60777ce700b5f2779f7c756119daea10cb78ec6eb475bd9cd66503767f35d678e6040516107399190611619565b60405180910390a45050505050505050505050565b5f8084848460405160200161076593929190611233565b6040516020818303038152906040528051906020012090505f606082901b90505f805f836bffffffffffffffffffffffff19166bffffffffffffffffffffffff191681526020019081526020015f206040518060600160405290815f820180546107ce90610ed0565b80601f01602080910402602001604051908101604052809291908181526020018280546107fa90610ed0565b80156108455780601f1061081c57610100808354040283529160200191610845565b820191905f5260205f20905b81548152906001019060200180831161082857829003601f168201915b50505050508152602001600182015f9054906101000a900473ffffffffffffffffffffffffffffffffffffffff1673ffffffffffffffffffffffffffffffffffffffff1673ffffffffffffffffffffffffffffffffffffffff1681526020016002820180546108b390610ed0565b80601f01602080910402602001604051908101604052809291908181526020018280546108df90610ed0565b801561092a5780601f106109015761010080835404028352916020019161092a565b820191905f5260205f20905b81548152906001019060200180831161090d57829003601f168201915b5050505050815250509050866040516020016109469190611639565b60405160208183030381529060405280519060200120815f01516040516020016109709190611639565b604051602081830303815290604052805190602001201480156109c257508473ffffffffffffffffffffffffffffffffffffffff16816020015173ffffffffffffffffffffffffffffffffffffffff16145b6109cf575f60601b6109d1565b815b93505050509392505050565b5f604051905090565b5f80fd5b5f80fd5b5f7fffffffffffffffffffffffffffffffffffffffff00000000000000000000000082169050919050565b610a22816109ee565b8114610a2c575f80fd5b50565b5f81359050610a3d81610a19565b92915050565b5f60208284031215610a5857610a576109e6565b5b5f610a6584828501610a2f565b91505092915050565b5f81519050919050565b5f82825260208201905092915050565b5f5b83811015610aa5578082015181840152602081019050610a8a565b5f8484015250505050565b5f601f19601f8301169050919050565b5f610aca82610a6e565b610ad48185610a78565b9350610ae4818560208601610a88565b610aed81610ab0565b840191505092915050565b5f73ffffffffffffffffffffffffffffffffffffffff82169050919050565b5f610b2182610af8565b9050919050565b610b3181610b17565b82525050565b5f81519050919050565b5f82825260208201905092915050565b5f610b5b82610b37565b610b658185610b41565b9350610b75818560208601610a88565b610b7e81610ab0565b840191505092915050565b5f6060820190508181035f830152610ba18186610ac0565b9050610bb06020830185610b28565b8181036040830152610bc28184610b51565b9050949350505050565b5f8115159050919050565b610be081610bcc565b82525050565b5f602082019050610bf95f830184610bd7565b92915050565b5f80fd5b5f80fd5b7f4e487b71000000000000000000000000000000000000000000000000000000005f52604160045260245ffd5b610c3d82610ab0565b810181811067ffffffffffffffff82111715610c5c57610c5b610c07565b5b80604052505050565b5f610c6e6109dd565b9050610c7a8282610c34565b919050565b5f67ffffffffffffffff821115610c9957610c98610c07565b5b610ca282610ab0565b9050602081019050919050565b828183375f83830152505050565b5f610ccf610cca84610c7f565b610c65565b905082815260208101848484011115610ceb57610cea610c03565b5b610cf6848285610caf565b509392505050565b5f82601f830112610d1257610d11610bff565b5b8135610d22848260208601610cbd565b91505092915050565b5f67ffffffffffffffff821115610d4557610d44610c07565b5b610d4e82610ab0565b9050602081019050919050565b5f610d6d610d6884610d2b565b610c65565b905082815260208101848484011115610d8957610d88610c03565b5b610d94848285610caf565b509392505050565b5f82601f830112610db057610daf610bff565b5b8135610dc0848260208601610d5b565b91505092915050565b610dd281610b17565b8114610ddc575f80fd5b50565b5f81359050610ded81610dc9565b92915050565b5f805f60608486031215610e0a57610e096109e6565b5b5f84013567ffffffffffffffff811115610e2757610e266109ea565b5b610e3386828701610cfe565b935050602084013567ffffffffffffffff811115610e5457610e536109ea565b5b610e6086828701610d9c565b9250506040610e7186828701610ddf565b9150509250925092565b610e84816109ee565b82525050565b5f602082019050610e9d5f830184610e7b565b92915050565b7f4e487b71000000000000000000000000000000000000000000000000000000005f52602260045260245ffd5b5f6002820490506001821680610ee757607f821691505b602082108103610efa57610ef9610ea3565b5b50919050565b7f496e76616c6964207369676e6174757265206c656e67746800000000000000005f82015250565b5f610f34601883610a78565b9150610f3f82610f00565b602082019050919050565b5f6020820190508181035f830152610f6181610f28565b9050919050565b5f60ff82169050919050565b7f4e487b71000000000000000000000000000000000000000000000000000000005f52601160045260245ffd5b5f610fab82610f68565b9150610fb683610f68565b9250828201905060ff811115610fcf57610fce610f74565b5b92915050565b7f496e76616c696420762076616c756500000000000000000000000000000000005f82015250565b5f611009600f83610a78565b915061101482610fd5565b602082019050919050565b5f6020820190508181035f83015261103681610ffd565b9050919050565b5f81905092915050565b7f19457468657265756d205369676e6564204d6573736167653a0a3436000000005f82015250565b5f61107b601c8361103d565b915061108682611047565b601c82019050919050565b5f61109b82610a6e565b6110a5818561103d565b93506110b5818560208601610a88565b80840191505092915050565b5f6110cb8261106f565b91506110d78284611091565b915081905092915050565b5f819050919050565b6110f4816110e2565b82525050565b61110381610f68565b82525050565b5f60808201905061111c5f8301876110eb565b61112960208301866110fa565b61113660408301856110eb565b61114360608301846110eb565b95945050505050565b7f496e76616c6964207369676e61747572650000000000000000000000000000005f82015250565b5f611180601183610a78565b915061118b8261114c565b602082019050919050565b5f6020820190508181035f8301526111ad81611174565b9050919050565b5f81905092915050565b5f6111c882610b37565b6111d281856111b4565b93506111e2818560208601610a88565b80840191505092915050565b5f8160601b9050919050565b5f611204826111ee565b9050919050565b5f611215826111fa565b9050919050565b61122d61122882610b17565b61120b565b82525050565b5f61123e8286611091565b915061124a82856111be565b9150611256828461121c565b601482019150819050949350505050565b5f819050815f5260205f209050919050565b5f6020601f8301049050919050565b5f82821b905092915050565b5f600883026112c37fffffffffffffffffffffffffffffffffffffffffffffffffffffffffffffffff82611288565b6112cd8683611288565b95508019841693508086168417925050509392505050565b5f819050919050565b5f819050919050565b5f61131161130c611307846112e5565b6112ee565b6112e5565b9050919050565b5f819050919050565b61132a836112f7565b61133e61133682611318565b848454611294565b825550505050565b5f90565b611352611346565b61135d818484611321565b505050565b5b81811015611380576113755f8261134a565b600181019050611363565b5050565b601f8211156113c55761139681611267565b61139f84611279565b810160208510156113ae578190505b6113c26113ba85611279565b830182611362565b50505b505050565b5f82821c905092915050565b5f6113e55f19846008026113ca565b1980831691505092915050565b5f6113fd83836113d6565b9150826002028217905092915050565b61141682610a6e565b67ffffffffffffffff81111561142f5761142e610c07565b5b6114398254610ed0565b611444828285611384565b5f60209050601f831160018114611475575f8415611463578287015190505b61146d85826113f2565b8655506114d4565b601f19841661148386611267565b5f5b828110156114aa57848901518255600182019150602085019450602081019050611485565b868310156114c757848901516114c3601f8916826113d6565b8355505b6001600288020188555050505b505050505050565b5f819050815f5260205f209050919050565b601f82111561152f57611500816114dc565b61150984611279565b81016020851015611518578190505b61152c61152485611279565b830182611362565b50505b505050565b61153d82610b37565b67ffffffffffffffff81111561155657611555610c07565b5b6115608254610ed0565b61156b8282856114ee565b5f60209050601f83116001811461159c575f841561158a578287015190505b61159485826113f2565b8655506115fb565b601f1984166115aa866114dc565b5f5b828110156115d1578489015182556001820191506020850194506020810190506115ac565b868310156115ee57848901516115ea601f8916826113d6565b8355505b6001600288020188555050505b505050505050565b5f61160e82846111be565b915081905092915050565b5f6020820190508181035f8301526116318184610ac0565b905092915050565b5f6116448284611091565b91508190509291505056fea26469706673582212209869c5728f6319472962c98a63619c44a7f23f326ebda7b95796c4f44ce304ef64736f6c63430008160033",
			"opcodes": "PUSH1 0x80 PUSH1 0x40 MSTORE CALLVALUE DUP1 ISZERO PUSH2 0xF JUMPI PUSH0 DUP1 REVERT JUMPDEST POP PUSH2 0x1685 DUP1 PUSH2 0x1D PUSH0 CODECOPY PUSH0 RETURN INVALID PUSH1 0x80 PUSH1 0x40 MSTORE CALLVALUE DUP1 ISZERO PUSH2 0xF JUMPI PUSH0 DUP1 REVERT JUMPDEST POP PUSH1 0x4 CALLDATASIZE LT PUSH2 0x4A JUMPI PUSH0 CALLDATALOAD PUSH1 0xE0 SHR DUP1 PUSH4 0x5A9AC43F EQ PUSH2 0x4E JUMPI DUP1 PUSH4 0x7393EEB4 EQ PUSH2 0x80 JUMPI DUP1 PUSH4 0xB2F6FE6F EQ PUSH2 0xB0 JUMPI DUP1 PUSH4 0xBF773100 EQ PUSH2 0xCC JUMPI JUMPDEST PUSH0 DUP1 REVERT JUMPDEST PUSH2 0x68 PUSH1 0x4 DUP1 CALLDATASIZE SUB DUP2 ADD SWAP1 PUSH2 0x63 SWAP2 SWAP1 PUSH2 0xA43 JUMP JUMPDEST PUSH2 0xFC JUMP JUMPDEST PUSH1 0x40 MLOAD PUSH2 0x77 SWAP4 SWAP3 SWAP2 SWAP1 PUSH2 0xB89 JUMP JUMPDEST PUSH1 0x40 MLOAD DUP1 SWAP2 SUB SWAP1 RETURN JUMPDEST PUSH2 0x9A PUSH1 0x4 DUP1 CALLDATASIZE SUB DUP2 ADD SWAP1 PUSH2 0x95 SWAP2 SWAP1 PUSH2 0xA43 JUMP JUMPDEST PUSH2 0x24C JUMP JUMPDEST PUSH1 0x40 MLOAD PUSH2 0xA7 SWAP2 SWAP1 PUSH2 0xBE6 JUMP JUMPDEST PUSH1 0x40 MLOAD DUP1 SWAP2 SUB SWAP1 RETURN JUMPDEST PUSH2 0xCA PUSH1 0x4 DUP1 CALLDATASIZE SUB DUP2 ADD SWAP1 PUSH2 0xC5 SWAP2 SWAP1 PUSH2 0xDF3 JUMP JUMPDEST PUSH2 0x40C JUMP JUMPDEST STOP JUMPDEST PUSH2 0xE6 PUSH1 0x4 DUP1 CALLDATASIZE SUB DUP2 ADD SWAP1 PUSH2 0xE1 SWAP2 SWAP1 PUSH2 0xDF3 JUMP JUMPDEST PUSH2 0x74E JUMP JUMPDEST PUSH1 0x40 MLOAD PUSH2 0xF3 SWAP2 SWAP1 PUSH2 0xE8A JUMP JUMPDEST PUSH1 0x40 MLOAD DUP1 SWAP2 SUB SWAP1 RETURN JUMPDEST PUSH0 PUSH1 0x20 MSTORE DUP1 PUSH0 MSTORE PUSH1 0x40 PUSH0 KECCAK256 PUSH0 SWAP2 POP SWAP1 POP DUP1 PUSH0 ADD DUP1 SLOAD PUSH2 0x11A SWAP1 PUSH2 0xED0 JUMP JUMPDEST DUP1 PUSH1 0x1F ADD PUSH1 0x20 DUP1 SWAP2 DIV MUL PUSH1 0x20 ADD PUSH1 0x40 MLOAD SWAP1 DUP2 ADD PUSH1 0x40 MSTORE DUP1 SWAP3 SWAP2 SWAP1 DUP2 DUP2 MSTORE PUSH1 0x20 ADD DUP3 DUP1 SLOAD PUSH2 0x146 SWAP1 PUSH2 0xED0 JUMP JUMPDEST DUP1 ISZERO PUSH2 0x191 JUMPI DUP1 PUSH1 0x1F LT PUSH2 0x168 JUMPI PUSH2 0x100 DUP1 DUP4 SLOAD DIV MUL DUP4 MSTORE SWAP2 PUSH1 0x20 ADD SWAP2 PUSH2 0x191 JUMP JUMPDEST DUP3 ADD SWAP2 SWAP1 PUSH0 MSTORE PUSH1 0x20 PUSH0 KECCAK256 SWAP1 JUMPDEST DUP2 SLOAD DUP2 MSTORE SWAP1 PUSH1 0x1 ADD SWAP1 PUSH1 0x20 ADD DUP1 DUP4 GT PUSH2 0x174 JUMPI DUP3 SWAP1 SUB PUSH1 0x1F AND DUP3 ADD SWAP2 JUMPDEST POP POP POP POP POP SWAP1 DUP1 PUSH1 0x1 ADD PUSH0 SWAP1 SLOAD SWAP1 PUSH2 0x100 EXP SWAP1 DIV PUSH20 0xFFFFFFFFFFFFFFFFFFFFFFFFFFFFFFFFFFFFFFFF AND SWAP1 DUP1 PUSH1 0x2 ADD DUP1 SLOAD PUSH2 0x1CB SWAP1 PUSH2 0xED0 JUMP JUMPDEST DUP1 PUSH1 0x1F ADD PUSH1 0x20 DUP1 SWAP2 DIV MUL PUSH1 0x20 ADD PUSH1 0x40 MLOAD SWAP1 DUP2 ADD PUSH1 0x40 MSTORE DUP1 SWAP3 SWAP2 SWAP1 DUP2 DUP2 MSTORE PUSH1 0x20 ADD DUP3 DUP1 SLOAD PUSH2 0x1F7 SWAP1 PUSH2 0xED0 JUMP JUMPDEST DUP1 ISZERO PUSH2 0x242 JUMPI DUP1 PUSH1 0x1F LT PUSH2 0x219 JUMPI PUSH2 0x100 DUP1 DUP4 SLOAD DIV MUL DUP4 MSTORE SWAP2 PUSH1 0x20 ADD SWAP2 PUSH2 0x242 JUMP JUMPDEST DUP3 ADD SWAP2 SWAP1 PUSH0 MSTORE PUSH1 0x20 PUSH0 KECCAK256 SWAP1 JUMPDEST DUP2 SLOAD DUP2 MSTORE SWAP1 PUSH1 0x1 ADD SWAP1 PUSH1 0x20 ADD DUP1 DUP4 GT PUSH2 0x225 JUMPI DUP3 SWAP1 SUB PUSH1 0x1F AND DUP3 ADD SWAP2 JUMPDEST POP POP POP POP POP SWAP1 POP DUP4 JUMP JUMPDEST PUSH0 DUP1 PUSH0 DUP1 DUP5 PUSH12 0xFFFFFFFFFFFFFFFFFFFFFFFF NOT AND PUSH12 0xFFFFFFFFFFFFFFFFFFFFFFFF NOT AND DUP2 MSTORE PUSH1 0x20 ADD SWAP1 DUP2 MSTORE PUSH1 0x20 ADD PUSH0 KECCAK256 PUSH1 0x40 MLOAD DUP1 PUSH1 0x60 ADD PUSH1 0x40 MSTORE SWAP1 DUP2 PUSH0 DUP3 ADD DUP1 SLOAD PUSH2 0x296 SWAP1 PUSH2 0xED0 JUMP JUMPDEST DUP1 PUSH1 0x1F ADD PUSH1 0x20 DUP1 SWAP2 DIV MUL PUSH1 0x20 ADD PUSH1 0x40 MLOAD SWAP1 DUP2 ADD PUSH1 0x40 MSTORE DUP1 SWAP3 SWAP2 SWAP1 DUP2 DUP2 MSTORE PUSH1 0x20 ADD DUP3 DUP1 SLOAD PUSH2 0x2C2 SWAP1 PUSH2 0xED0 JUMP JUMPDEST DUP1 ISZERO PUSH2 0x30D JUMPI DUP1 PUSH1 0x1F LT PUSH2 0x2E4 JUMPI PUSH2 0x100 DUP1 DUP4 SLOAD DIV MUL DUP4 MSTORE SWAP2 PUSH1 0x20 ADD SWAP2 PUSH2 0x30D JUMP JUMPDEST DUP3 ADD SWAP2 SWAP1 PUSH0 MSTORE PUSH1 0x20 PUSH0 KECCAK256 SWAP1 JUMPDEST DUP2 SLOAD DUP2 MSTORE SWAP1 PUSH1 0x1 ADD SWAP1 PUSH1 0x20 ADD DUP1 DUP4 GT PUSH2 0x2F0 JUMPI DUP3 SWAP1 SUB PUSH1 0x1F AND DUP3 ADD SWAP2 JUMPDEST POP POP POP POP POP DUP2 MSTORE PUSH1 0x20 ADD PUSH1 0x1 DUP3 ADD PUSH0 SWAP1 SLOAD SWAP1 PUSH2 0x100 EXP SWAP1 DIV PUSH20 0xFFFFFFFFFFFFFFFFFFFFFFFFFFFFFFFFFFFFFFFF AND PUSH20 0xFFFFFFFFFFFFFFFFFFFFFFFFFFFFFFFFFFFFFFFF AND PUSH20 0xFFFFFFFFFFFFFFFFFFFFFFFFFFFFFFFFFFFFFFFF AND DUP2 MSTORE PUSH1 0x20 ADD PUSH1 0x2 DUP3 ADD DUP1 SLOAD PUSH2 0x37B SWAP1 PUSH2 0xED0 JUMP JUMPDEST DUP1 PUSH1 0x1F ADD PUSH1 0x20 DUP1 SWAP2 DIV MUL PUSH1 0x20 ADD PUSH1 0x40 MLOAD SWAP1 DUP2 ADD PUSH1 0x40 MSTORE DUP1 SWAP3 SWAP2 SWAP1 DUP2 DUP2 MSTORE PUSH1 0x20 ADD DUP3 DUP1 SLOAD PUSH2 0x3A7 SWAP1 PUSH2 0xED0 JUMP JUMPDEST DUP1 ISZERO PUSH2 0x3F2 JUMPI DUP1 PUSH1 0x1F LT PUSH2 0x3C9 JUMPI PUSH2 0x100 DUP1 DUP4 SLOAD DIV MUL DUP4 MSTORE SWAP2 PUSH1 0x20 ADD SWAP2 PUSH2 0x3F2 JUMP JUMPDEST DUP3 ADD SWAP2 SWAP1 PUSH0 MSTORE PUSH1 0x20 PUSH0 KECCAK256 SWAP1 JUMPDEST DUP2 SLOAD DUP2 MSTORE SWAP1 PUSH1 0x1 ADD SWAP1 PUSH1 0x20 ADD DUP1 DUP4 GT PUSH2 0x3D5 JUMPI DUP3 SWAP1 SUB PUSH1 0x1F AND DUP3 ADD SWAP2 JUMPDEST POP POP POP POP POP DUP2 MSTORE POP POP SWAP1 POP PUSH0 DUP2 PUSH0 ADD MLOAD MLOAD GT SWAP2 POP POP SWAP2 SWAP1 POP JUMP JUMPDEST PUSH1 0x41 DUP3 MLOAD EQ PUSH2 0x450 JUMPI PUSH1 0x40 MLOAD PUSH32 0x8C379A000000000000000000000000000000000000000000000000000000000 DUP2 MSTORE PUSH1 0x4 ADD PUSH2 0x447 SWAP1 PUSH2 0xF4A JUMP JUMPDEST PUSH1 0x40 MLOAD DUP1 SWAP2 SUB SWAP1 REVERT JUMPDEST PUSH0 DUP1 PUSH0 PUSH1 0x20 DUP6 ADD MLOAD SWAP3 POP PUSH1 0x40 DUP6 ADD MLOAD SWAP2 POP PUSH1 0x60 DUP6 ADD MLOAD PUSH0 BYTE SWAP1 POP PUSH1 0x1B DUP2 PUSH1 0xFF AND LT ISZERO PUSH2 0x486 JUMPI PUSH1 0x1B DUP2 PUSH2 0x483 SWAP2 SWAP1 PUSH2 0xFA1 JUMP JUMPDEST SWAP1 POP JUMPDEST PUSH1 0x1B DUP2 PUSH1 0xFF AND EQ DUP1 PUSH2 0x49B JUMPI POP PUSH1 0x1C DUP2 PUSH1 0xFF AND EQ JUMPDEST PUSH2 0x4DA JUMPI PUSH1 0x40 MLOAD PUSH32 0x8C379A000000000000000000000000000000000000000000000000000000000 DUP2 MSTORE PUSH1 0x4 ADD PUSH2 0x4D1 SWAP1 PUSH2 0x101F JUMP JUMPDEST PUSH1 0x40 MLOAD DUP1 SWAP2 SUB SWAP1 REVERT JUMPDEST PUSH0 DUP7 PUSH1 0x40 MLOAD PUSH1 0x20 ADD PUSH2 0x4EC SWAP2 SWAP1 PUSH2 0x10C1 JUMP JUMPDEST PUSH1 0x40 MLOAD PUSH1 0x20 DUP2 DUP4 SUB SUB DUP2 MSTORE SWAP1 PUSH1 0x40 MSTORE DUP1 MLOAD SWAP1 PUSH1 0x20 ADD KECCAK256 SWAP1 POP PUSH0 PUSH1 0x1 DUP3 DUP5 DUP8 DUP8 PUSH1 0x40 MLOAD PUSH0 DUP2 MSTORE PUSH1 0x20 ADD PUSH1 0x40 MSTORE PUSH1 0x40 MLOAD PUSH2 0x527 SWAP5 SWAP4 SWAP3 SWAP2 SWAP1 PUSH2 0x1109 JUMP JUMPDEST PUSH1 0x20 PUSH1 0x40 MLOAD PUSH1 0x20 DUP2 SUB SWAP1 DUP1 DUP5 SUB SWAP1 DUP6 GAS STATICCALL ISZERO DUP1 ISZERO PUSH2 0x547 JUMPI RETURNDATASIZE PUSH0 DUP1 RETURNDATACOPY RETURNDATASIZE PUSH0 REVERT JUMPDEST POP POP POP PUSH1 0x20 PUSH1 0x40 MLOAD SUB MLOAD SWAP1 POP DUP6 PUSH20 0xFFFFFFFFFFFFFFFFFFFFFFFFFFFFFFFFFFFFFFFF AND DUP2 PUSH20 0xFFFFFFFFFFFFFFFFFFFFFFFFFFFFFFFFFFFFFFFF AND EQ PUSH2 0x5C1 JUMPI PUSH1 0x40 MLOAD PUSH32 0x8C379A000000000000000000000000000000000000000000000000000000000 DUP2 MSTORE PUSH1 0x4 ADD PUSH2 0x5B8 SWAP1 PUSH2 0x1196 JUMP JUMPDEST PUSH1 0x40 MLOAD DUP1 SWAP2 SUB SWAP1 REVERT JUMPDEST PUSH0 DUP9 DUP9 DUP9 PUSH1 0x40 MLOAD PUSH1 0x20 ADD PUSH2 0x5D7 SWAP4 SWAP3 SWAP2 SWAP1 PUSH2 0x1233 JUMP JUMPDEST PUSH1 0x40 MLOAD PUSH1 0x20 DUP2 DUP4 SUB SUB DUP2 MSTORE SWAP1 PUSH1 0x40 MSTORE DUP1 MLOAD SWAP1 PUSH1 0x20 ADD KECCAK256 SWAP1 POP PUSH0 PUSH1 0x60 DUP3 SWAP1 SHL SWAP1 POP PUSH0 PUSH1 0x40 MLOAD DUP1 PUSH1 0x60 ADD PUSH1 0x40 MSTORE DUP1 DUP13 DUP2 MSTORE PUSH1 0x20 ADD DUP11 PUSH20 0xFFFFFFFFFFFFFFFFFFFFFFFFFFFFFFFFFFFFFFFF AND DUP2 MSTORE PUSH1 0x20 ADD DUP12 DUP2 MSTORE POP SWAP1 POP DUP1 PUSH0 DUP1 DUP5 PUSH12 0xFFFFFFFFFFFFFFFFFFFFFFFF NOT AND PUSH12 0xFFFFFFFFFFFFFFFFFFFFFFFF NOT AND DUP2 MSTORE PUSH1 0x20 ADD SWAP1 DUP2 MSTORE PUSH1 0x20 ADD PUSH0 KECCAK256 PUSH0 DUP3 ADD MLOAD DUP2 PUSH0 ADD SWAP1 DUP2 PUSH2 0x66D SWAP2 SWAP1 PUSH2 0x140D JUMP JUMPDEST POP PUSH1 0x20 DUP3 ADD MLOAD DUP2 PUSH1 0x1 ADD PUSH0 PUSH2 0x100 EXP DUP2 SLOAD DUP2 PUSH20 0xFFFFFFFFFFFFFFFFFFFFFFFFFFFFFFFFFFFFFFFF MUL NOT AND SWAP1 DUP4 PUSH20 0xFFFFFFFFFFFFFFFFFFFFFFFFFFFFFFFFFFFFFFFF AND MUL OR SWAP1 SSTORE POP PUSH1 0x40 DUP3 ADD MLOAD DUP2 PUSH1 0x2 ADD SWAP1 DUP2 PUSH2 0x6C9 SWAP2 SWAP1 PUSH2 0x1534 JUMP JUMPDEST POP SWAP1 POP POP DUP2 PUSH12 0xFFFFFFFFFFFFFFFFFFFFFFFF NOT AND DUP10 PUSH20 0xFFFFFFFFFFFFFFFFFFFFFFFFFFFFFFFFFFFFFFFF AND DUP12 PUSH1 0x40 MLOAD PUSH2 0x702 SWAP2 SWAP1 PUSH2 0x1603 JUMP JUMPDEST PUSH1 0x40 MLOAD DUP1 SWAP2 SUB SWAP1 KECCAK256 PUSH32 0xD60777CE700B5F2779F7C756119DAEA10CB78EC6EB475BD9CD66503767F35D67 DUP15 PUSH1 0x40 MLOAD PUSH2 0x739 SWAP2 SWAP1 PUSH2 0x1619 JUMP JUMPDEST PUSH1 0x40 MLOAD DUP1 SWAP2 SUB SWAP1 LOG4 POP POP POP POP POP POP POP POP POP POP POP JUMP JUMPDEST PUSH0 DUP1 DUP5 DUP5 DUP5 PUSH1 0x40 MLOAD PUSH1 0x20 ADD PUSH2 0x765 SWAP4 SWAP3 SWAP2 SWAP1 PUSH2 0x1233 JUMP JUMPDEST PUSH1 0x40 MLOAD PUSH1 0x20 DUP2 DUP4 SUB SUB DUP2 MSTORE SWAP1 PUSH1 0x40 MSTORE DUP1 MLOAD SWAP1 PUSH1 0x20 ADD KECCAK256 SWAP1 POP PUSH0 PUSH1 0x60 DUP3 SWAP1 SHL SWAP1 POP PUSH0 DUP1 PUSH0 DUP4 PUSH12 0xFFFFFFFFFFFFFFFFFFFFFFFF NOT AND PUSH12 0xFFFFFFFFFFFFFFFFFFFFFFFF NOT AND DUP2 MSTORE PUSH1 0x20 ADD SWAP1 DUP2 MSTORE PUSH1 0x20 ADD PUSH0 KECCAK256 PUSH1 0x40 MLOAD DUP1 PUSH1 0x60 ADD PUSH1 0x40 MSTORE SWAP1 DUP2 PUSH0 DUP3 ADD DUP1 SLOAD PUSH2 0x7CE SWAP1 PUSH2 0xED0 JUMP JUMPDEST DUP1 PUSH1 0x1F ADD PUSH1 0x20 DUP1 SWAP2 DIV MUL PUSH1 0x20 ADD PUSH1 0x40 MLOAD SWAP1 DUP2 ADD PUSH1 0x40 MSTORE DUP1 SWAP3 SWAP2 SWAP1 DUP2 DUP2 MSTORE PUSH1 0x20 ADD DUP3 DUP1 SLOAD PUSH2 0x7FA SWAP1 PUSH2 0xED0 JUMP JUMPDEST DUP1 ISZERO PUSH2 0x845 JUMPI DUP1 PUSH1 0x1F LT PUSH2 0x81C JUMPI PUSH2 0x100 DUP1 DUP4 SLOAD DIV MUL DUP4 MSTORE SWAP2 PUSH1 0x20 ADD SWAP2 PUSH2 0x845 JUMP JUMPDEST DUP3 ADD SWAP2 SWAP1 PUSH0 MSTORE PUSH1 0x20 PUSH0 KECCAK256 SWAP1 JUMPDEST DUP2 SLOAD DUP2 MSTORE SWAP1 PUSH1 0x1 ADD SWAP1 PUSH1 0x20 ADD DUP1 DUP4 GT PUSH2 0x828 JUMPI DUP3 SWAP1 SUB PUSH1 0x1F AND DUP3 ADD SWAP2 JUMPDEST POP POP POP POP POP DUP2 MSTORE PUSH1 0x20 ADD PUSH1 0x1 DUP3 ADD PUSH0 SWAP1 SLOAD SWAP1 PUSH2 0x100 EXP SWAP1 DIV PUSH20 0xFFFFFFFFFFFFFFFFFFFFFFFFFFFFFFFFFFFFFFFF AND PUSH20 0xFFFFFFFFFFFFFFFFFFFFFFFFFFFFFFFFFFFFFFFF AND PUSH20 0xFFFFFFFFFFFFFFFFFFFFFFFFFFFFFFFFFFFFFFFF AND DUP2 MSTORE PUSH1 0x20 ADD PUSH1 0x2 DUP3 ADD DUP1 SLOAD PUSH2 0x8B3 SWAP1 PUSH2 0xED0 JUMP JUMPDEST DUP1 PUSH1 0x1F ADD PUSH1 0x20 DUP1 SWAP2 DIV MUL PUSH1 0x20 ADD PUSH1 0x40 MLOAD SWAP1 DUP2 ADD PUSH1 0x40 MSTORE DUP1 SWAP3 SWAP2 SWAP1 DUP2 DUP2 MSTORE PUSH1 0x20 ADD DUP3 DUP1 SLOAD PUSH2 0x8DF SWAP1 PUSH2 0xED0 JUMP JUMPDEST DUP1 ISZERO PUSH2 0x92A JUMPI DUP1 PUSH1 0x1F LT PUSH2 0x901 JUMPI PUSH2 0x100 DUP1 DUP4 SLOAD DIV MUL DUP4 MSTORE SWAP2 PUSH1 0x20 ADD SWAP2 PUSH2 0x92A JUMP JUMPDEST DUP3 ADD SWAP2 SWAP1 PUSH0 MSTORE PUSH1 0x20 PUSH0 KECCAK256 SWAP1 JUMPDEST DUP2 SLOAD DUP2 MSTORE SWAP1 PUSH1 0x1 ADD SWAP1 PUSH1 0x20 ADD DUP1 DUP4 GT PUSH2 0x90D JUMPI DUP3 SWAP1 SUB PUSH1 0x1F AND DUP3 ADD SWAP2 JUMPDEST POP POP POP POP POP DUP2 MSTORE POP POP SWAP1 POP DUP7 PUSH1 0x40 MLOAD PUSH1 0x20 ADD PUSH2 0x946 SWAP2 SWAP1 PUSH2 0x1639 JUMP JUMPDEST PUSH1 0x40 MLOAD PUSH1 0x20 DUP2 DUP4 SUB SUB DUP2 MSTORE SWAP1 PUSH1 0x40 MSTORE DUP1 MLOAD SWAP1 PUSH1 0x20 ADD KECCAK256 DUP2 PUSH0 ADD MLOAD PUSH1 0x40 MLOAD PUSH1 0x20 ADD PUSH2 0x970 SWAP2 SWAP1 PUSH2 0x1639 JUMP JUMPDEST PUSH1 0x40 MLOAD PUSH1 0x20 DUP2 DUP4 SUB SUB DUP2 MSTORE SWAP1 PUSH1 0x40 MSTORE DUP1 MLOAD SWAP1 PUSH1 0x20 ADD KECCAK256 EQ DUP1 ISZERO PUSH2 0x9C2 JUMPI POP DUP5 PUSH20 0xFFFFFFFFFFFFFFFFFFFFFFFFFFFFFFFFFFFFFFFF AND DUP2 PUSH1 0x20 ADD MLOAD PUSH20 0xFFFFFFFFFFFFFFFFFFFFFFFFFFFFFFFFFFFFFFFF AND EQ JUMPDEST PUSH2 0x9CF JUMPI PUSH0 PUSH1 0x60 SHL PUSH2 0x9D1 JUMP JUMPDEST DUP2 JUMPDEST SWAP4 POP POP POP POP SWAP4 SWAP3 POP POP POP JUMP JUMPDEST PUSH0 PUSH1 0x40 MLOAD SWAP1 POP SWAP1 JUMP JUMPDEST PUSH0 DUP1 REVERT JUMPDEST PUSH0 DUP1 REVERT JUMPDEST PUSH0 PUSH32 0xFFFFFFFFFFFFFFFFFFFFFFFFFFFFFFFFFFFFFFFF000000000000000000000000 DUP3 AND SWAP1 POP SWAP2 SWAP1 POP JUMP JUMPDEST PUSH2 0xA22 DUP2 PUSH2 0x9EE JUMP JUMPDEST DUP2 EQ PUSH2 0xA2C JUMPI PUSH0 DUP1 REVERT JUMPDEST POP JUMP JUMPDEST PUSH0 DUP2 CALLDATALOAD SWAP1 POP PUSH2 0xA3D DUP2 PUSH2 0xA19 JUMP JUMPDEST SWAP3 SWAP2 POP POP JUMP JUMPDEST PUSH0 PUSH1 0x20 DUP3 DUP5 SUB SLT ISZERO PUSH2 0xA58 JUMPI PUSH2 0xA57 PUSH2 0x9E6 JUMP JUMPDEST JUMPDEST PUSH0 PUSH2 0xA65 DUP5 DUP3 DUP6 ADD PUSH2 0xA2F JUMP JUMPDEST SWAP2 POP POP SWAP3 SWAP2 POP POP JUMP JUMPDEST PUSH0 DUP2 MLOAD SWAP1 POP SWAP2 SWAP1 POP JUMP JUMPDEST PUSH0 DUP3 DUP3 MSTORE PUSH1 0x20 DUP3 ADD SWAP1 POP SWAP3 SWAP2 POP POP JUMP JUMPDEST PUSH0 JUMPDEST DUP4 DUP2 LT ISZERO PUSH2 0xAA5 JUMPI DUP1 DUP3 ADD MLOAD DUP2 DUP5 ADD MSTORE PUSH1 0x20 DUP2 ADD SWAP1 POP PUSH2 0xA8A JUMP JUMPDEST PUSH0 DUP5 DUP5 ADD MSTORE POP POP POP POP JUMP JUMPDEST PUSH0 PUSH1 0x1F NOT PUSH1 0x1F DUP4 ADD AND SWAP1 POP SWAP2 SWAP1 POP JUMP JUMPDEST PUSH0 PUSH2 0xACA DUP3 PUSH2 0xA6E JUMP JUMPDEST PUSH2 0xAD4 DUP2 DUP6 PUSH2 0xA78 JUMP JUMPDEST SWAP4 POP PUSH2 0xAE4 DUP2 DUP6 PUSH1 0x20 DUP7 ADD PUSH2 0xA88 JUMP JUMPDEST PUSH2 0xAED DUP2 PUSH2 0xAB0 JUMP JUMPDEST DUP5 ADD SWAP2 POP POP SWAP3 SWAP2 POP POP JUMP JUMPDEST PUSH0 PUSH20 0xFFFFFFFFFFFFFFFFFFFFFFFFFFFFFFFFFFFFFFFF DUP3 AND SWAP1 POP SWAP2 SWAP1 POP JUMP JUMPDEST PUSH0 PUSH2 0xB21 DUP3 PUSH2 0xAF8 JUMP JUMPDEST SWAP1 POP SWAP2 SWAP1 POP JUMP JUMPDEST PUSH2 0xB31 DUP2 PUSH2 0xB17 JUMP JUMPDEST DUP3 MSTORE POP POP JUMP JUMPDEST PUSH0 DUP2 MLOAD SWAP1 POP SWAP2 SWAP1 POP JUMP JUMPDEST PUSH0 DUP3 DUP3 MSTORE PUSH1 0x20 DUP3 ADD SWAP1 POP SWAP3 SWAP2 POP POP JUMP JUMPDEST PUSH0 PUSH2 0xB5B DUP3 PUSH2 0xB37 JUMP JUMPDEST PUSH2 0xB65 DUP2 DUP6 PUSH2 0xB41 JUMP JUMPDEST SWAP4 POP PUSH2 0xB75 DUP2 DUP6 PUSH1 0x20 DUP7 ADD PUSH2 0xA88 JUMP JUMPDEST PUSH2 0xB7E DUP2 PUSH2 0xAB0 JUMP JUMPDEST DUP5 ADD SWAP2 POP POP SWAP3 SWAP2 POP POP JUMP JUMPDEST PUSH0 PUSH1 0x60 DUP3 ADD SWAP1 POP DUP2 DUP2 SUB PUSH0 DUP4 ADD MSTORE PUSH2 0xBA1 DUP2 DUP7 PUSH2 0xAC0 JUMP JUMPDEST SWAP1 POP PUSH2 0xBB0 PUSH1 0x20 DUP4 ADD DUP6 PUSH2 0xB28 JUMP JUMPDEST DUP2 DUP2 SUB PUSH1 0x40 DUP4 ADD MSTORE PUSH2 0xBC2 DUP2 DUP5 PUSH2 0xB51 JUMP JUMPDEST SWAP1 POP SWAP5 SWAP4 POP POP POP POP JUMP JUMPDEST PUSH0 DUP2 ISZERO ISZERO SWAP1 POP SWAP2 SWAP1 POP JUMP JUMPDEST PUSH2 0xBE0 DUP2 PUSH2 0xBCC JUMP JUMPDEST DUP3 MSTORE POP POP JUMP JUMPDEST PUSH0 PUSH1 0x20 DUP3 ADD SWAP1 POP PUSH2 0xBF9 PUSH0 DUP4 ADD DUP5 PUSH2 0xBD7 JUMP JUMPDEST SWAP3 SWAP2 POP POP JUMP JUMPDEST PUSH0 DUP1 REVERT JUMPDEST PUSH0 DUP1 REVERT JUMPDEST PUSH32 0x4E487B7100000000000000000000000000000000000000000000000000000000 PUSH0 MSTORE PUSH1 0x41 PUSH1 0x4 MSTORE PUSH1 0x24 PUSH0 REVERT JUMPDEST PUSH2 0xC3D DUP3 PUSH2 0xAB0 JUMP JUMPDEST DUP2 ADD DUP2 DUP2 LT PUSH8 0xFFFFFFFFFFFFFFFF DUP3 GT OR ISZERO PUSH2 0xC5C JUMPI PUSH2 0xC5B PUSH2 0xC07 JUMP JUMPDEST JUMPDEST DUP1 PUSH1 0x40 MSTORE POP POP POP JUMP JUMPDEST PUSH0 PUSH2 0xC6E PUSH2 0x9DD JUMP JUMPDEST SWAP1 POP PUSH2 0xC7A DUP3 DUP3 PUSH2 0xC34 JUMP JUMPDEST SWAP2 SWAP1 POP JUMP JUMPDEST PUSH0 PUSH8 0xFFFFFFFFFFFFFFFF DUP3 GT ISZERO PUSH2 0xC99 JUMPI PUSH2 0xC98 PUSH2 0xC07 JUMP JUMPDEST JUMPDEST PUSH2 0xCA2 DUP3 PUSH2 0xAB0 JUMP JUMPDEST SWAP1 POP PUSH1 0x20 DUP2 ADD SWAP1 POP SWAP2 SWAP1 POP JUMP JUMPDEST DUP3 DUP2 DUP4 CALLDATACOPY PUSH0 DUP4 DUP4 ADD MSTORE POP POP POP JUMP JUMPDEST PUSH0 PUSH2 0xCCF PUSH2 0xCCA DUP5 PUSH2 0xC7F JUMP JUMPDEST PUSH2 0xC65 JUMP JUMPDEST SWAP1 POP DUP3 DUP2 MSTORE PUSH1 0x20 DUP2 ADD DUP5 DUP5 DUP5 ADD GT ISZERO PUSH2 0xCEB JUMPI PUSH2 0xCEA PUSH2 0xC03 JUMP JUMPDEST JUMPDEST PUSH2 0xCF6 DUP5 DUP3 DUP6 PUSH2 0xCAF JUMP JUMPDEST POP SWAP4 SWAP3 POP POP POP JUMP JUMPDEST PUSH0 DUP3 PUSH1 0x1F DUP4 ADD SLT PUSH2 0xD12 JUMPI PUSH2 0xD11 PUSH2 0xBFF JUMP JUMPDEST JUMPDEST DUP2 CALLDATALOAD PUSH2 0xD22 DUP5 DUP3 PUSH1 0x20 DUP7 ADD PUSH2 0xCBD JUMP JUMPDEST SWAP2 POP POP SWAP3 SWAP2 POP POP JUMP JUMPDEST PUSH0 PUSH8 0xFFFFFFFFFFFFFFFF DUP3 GT ISZERO PUSH2 0xD45 JUMPI PUSH2 0xD44 PUSH2 0xC07 JUMP JUMPDEST JUMPDEST PUSH2 0xD4E DUP3 PUSH2 0xAB0 JUMP JUMPDEST SWAP1 POP PUSH1 0x20 DUP2 ADD SWAP1 POP SWAP2 SWAP1 POP JUMP JUMPDEST PUSH0 PUSH2 0xD6D PUSH2 0xD68 DUP5 PUSH2 0xD2B JUMP JUMPDEST PUSH2 0xC65 JUMP JUMPDEST SWAP1 POP DUP3 DUP2 MSTORE PUSH1 0x20 DUP2 ADD DUP5 DUP5 DUP5 ADD GT ISZERO PUSH2 0xD89 JUMPI PUSH2 0xD88 PUSH2 0xC03 JUMP JUMPDEST JUMPDEST PUSH2 0xD94 DUP5 DUP3 DUP6 PUSH2 0xCAF JUMP JUMPDEST POP SWAP4 SWAP3 POP POP POP JUMP JUMPDEST PUSH0 DUP3 PUSH1 0x1F DUP4 ADD SLT PUSH2 0xDB0 JUMPI PUSH2 0xDAF PUSH2 0xBFF JUMP JUMPDEST JUMPDEST DUP2 CALLDATALOAD PUSH2 0xDC0 DUP5 DUP3 PUSH1 0x20 DUP7 ADD PUSH2 0xD5B JUMP JUMPDEST SWAP2 POP POP SWAP3 SWAP2 POP POP JUMP JUMPDEST PUSH2 0xDD2 DUP2 PUSH2 0xB17 JUMP JUMPDEST DUP2 EQ PUSH2 0xDDC JUMPI PUSH0 DUP1 REVERT JUMPDEST POP JUMP JUMPDEST PUSH0 DUP2 CALLDATALOAD SWAP1 POP PUSH2 0xDED DUP2 PUSH2 0xDC9 JUMP JUMPDEST SWAP3 SWAP2 POP POP JUMP JUMPDEST PUSH0 DUP1 PUSH0 PUSH1 0x60 DUP5 DUP7 SUB SLT ISZERO PUSH2 0xE0A JUMPI PUSH2 0xE09 PUSH2 0x9E6 JUMP JUMPDEST JUMPDEST PUSH0 DUP5 ADD CALLDATALOAD PUSH8 0xFFFFFFFFFFFFFFFF DUP2 GT ISZERO PUSH2 0xE27 JUMPI PUSH2 0xE26 PUSH2 0x9EA JUMP JUMPDEST JUMPDEST PUSH2 0xE33 DUP7 DUP3 DUP8 ADD PUSH2 0xCFE JUMP JUMPDEST SWAP4 POP POP PUSH1 0x20 DUP5 ADD CALLDATALOAD PUSH8 0xFFFFFFFFFFFFFFFF DUP2 GT ISZERO PUSH2 0xE54 JUMPI PUSH2 0xE53 PUSH2 0x9EA JUMP JUMPDEST JUMPDEST PUSH2 0xE60 DUP7 DUP3 DUP8 ADD PUSH2 0xD9C JUMP JUMPDEST SWAP3 POP POP PUSH1 0x40 PUSH2 0xE71 DUP7 DUP3 DUP8 ADD PUSH2 0xDDF JUMP JUMPDEST SWAP2 POP POP SWAP3 POP SWAP3 POP SWAP3 JUMP JUMPDEST PUSH2 0xE84 DUP2 PUSH2 0x9EE JUMP JUMPDEST DUP3 MSTORE POP POP JUMP JUMPDEST PUSH0 PUSH1 0x20 DUP3 ADD SWAP1 POP PUSH2 0xE9D PUSH0 DUP4 ADD DUP5 PUSH2 0xE7B JUMP JUMPDEST SWAP3 SWAP2 POP POP JUMP JUMPDEST PUSH32 0x4E487B7100000000000000000000000000000000000000000000000000000000 PUSH0 MSTORE PUSH1 0x22 PUSH1 0x4 MSTORE PUSH1 0x24 PUSH0 REVERT JUMPDEST PUSH0 PUSH1 0x2 DUP3 DIV SWAP1 POP PUSH1 0x1 DUP3 AND DUP1 PUSH2 0xEE7 JUMPI PUSH1 0x7F DUP3 AND SWAP2 POP JUMPDEST PUSH1 0x20 DUP3 LT DUP2 SUB PUSH2 0xEFA JUMPI PUSH2 0xEF9 PUSH2 0xEA3 JUMP JUMPDEST JUMPDEST POP SWAP2 SWAP1 POP JUMP JUMPDEST PUSH32 0x496E76616C6964207369676E6174757265206C656E6774680000000000000000 PUSH0 DUP3 ADD MSTORE POP JUMP JUMPDEST PUSH0 PUSH2 0xF34 PUSH1 0x18 DUP4 PUSH2 0xA78 JUMP JUMPDEST SWAP2 POP PUSH2 0xF3F DUP3 PUSH2 0xF00 JUMP JUMPDEST PUSH1 0x20 DUP3 ADD SWAP1 POP SWAP2 SWAP1 POP JUMP JUMPDEST PUSH0 PUSH1 0x20 DUP3 ADD SWAP1 POP DUP2 DUP2 SUB PUSH0 DUP4 ADD MSTORE PUSH2 0xF61 DUP2 PUSH2 0xF28 JUMP JUMPDEST SWAP1 POP SWAP2 SWAP1 POP JUMP JUMPDEST PUSH0 PUSH1 0xFF DUP3 AND SWAP1 POP SWAP2 SWAP1 POP JUMP JUMPDEST PUSH32 0x4E487B7100000000000000000000000000000000000000000000000000000000 PUSH0 MSTORE PUSH1 0x11 PUSH1 0x4 MSTORE PUSH1 0x24 PUSH0 REVERT JUMPDEST PUSH0 PUSH2 0xFAB DUP3 PUSH2 0xF68 JUMP JUMPDEST SWAP2 POP PUSH2 0xFB6 DUP4 PUSH2 0xF68 JUMP JUMPDEST SWAP3 POP DUP3 DUP3 ADD SWAP1 POP PUSH1 0xFF DUP2 GT ISZERO PUSH2 0xFCF JUMPI PUSH2 0xFCE PUSH2 0xF74 JUMP JUMPDEST JUMPDEST SWAP3 SWAP2 POP POP JUMP JUMPDEST PUSH32 0x496E76616C696420762076616C75650000000000000000000000000000000000 PUSH0 DUP3 ADD MSTORE POP JUMP JUMPDEST PUSH0 PUSH2 0x1009 PUSH1 0xF DUP4 PUSH2 0xA78 JUMP JUMPDEST SWAP2 POP PUSH2 0x1014 DUP3 PUSH2 0xFD5 JUMP JUMPDEST PUSH1 0x20 DUP3 ADD SWAP1 POP SWAP2 SWAP1 POP JUMP JUMPDEST PUSH0 PUSH1 0x20 DUP3 ADD SWAP1 POP DUP2 DUP2 SUB PUSH0 DUP4 ADD MSTORE PUSH2 0x1036 DUP2 PUSH2 0xFFD JUMP JUMPDEST SWAP1 POP SWAP2 SWAP1 POP JUMP JUMPDEST PUSH0 DUP2 SWAP1 POP SWAP3 SWAP2 POP POP JUMP JUMPDEST PUSH32 0x19457468657265756D205369676E6564204D6573736167653A0A343600000000 PUSH0 DUP3 ADD MSTORE POP JUMP JUMPDEST PUSH0 PUSH2 0x107B PUSH1 0x1C DUP4 PUSH2 0x103D JUMP JUMPDEST SWAP2 POP PUSH2 0x1086 DUP3 PUSH2 0x1047 JUMP JUMPDEST PUSH1 0x1C DUP3 ADD SWAP1 POP SWAP2 SWAP1 POP JUMP JUMPDEST PUSH0 PUSH2 0x109B DUP3 PUSH2 0xA6E JUMP JUMPDEST PUSH2 0x10A5 DUP2 DUP6 PUSH2 0x103D JUMP JUMPDEST SWAP4 POP PUSH2 0x10B5 DUP2 DUP6 PUSH1 0x20 DUP7 ADD PUSH2 0xA88 JUMP JUMPDEST DUP1 DUP5 ADD SWAP2 POP POP SWAP3 SWAP2 POP POP JUMP JUMPDEST PUSH0 PUSH2 0x10CB DUP3 PUSH2 0x106F JUMP JUMPDEST SWAP2 POP PUSH2 0x10D7 DUP3 DUP5 PUSH2 0x1091 JUMP JUMPDEST SWAP2 POP DUP2 SWAP1 POP SWAP3 SWAP2 POP POP JUMP JUMPDEST PUSH0 DUP2 SWAP1 POP SWAP2 SWAP1 POP JUMP JUMPDEST PUSH2 0x10F4 DUP2 PUSH2 0x10E2 JUMP JUMPDEST DUP3 MSTORE POP POP JUMP JUMPDEST PUSH2 0x1103 DUP2 PUSH2 0xF68 JUMP JUMPDEST DUP3 MSTORE POP POP JUMP JUMPDEST PUSH0 PUSH1 0x80 DUP3 ADD SWAP1 POP PUSH2 0x111C PUSH0 DUP4 ADD DUP8 PUSH2 0x10EB JUMP JUMPDEST PUSH2 0x1129 PUSH1 0x20 DUP4 ADD DUP7 PUSH2 0x10FA JUMP JUMPDEST PUSH2 0x1136 PUSH1 0x40 DUP4 ADD DUP6 PUSH2 0x10EB JUMP JUMPDEST PUSH2 0x1143 PUSH1 0x60 DUP4 ADD DUP5 PUSH2 0x10EB JUMP JUMPDEST SWAP6 SWAP5 POP POP POP POP POP JUMP JUMPDEST PUSH32 0x496E76616C6964207369676E6174757265000000000000000000000000000000 PUSH0 DUP3 ADD MSTORE POP JUMP JUMPDEST PUSH0 PUSH2 0x1180 PUSH1 0x11 DUP4 PUSH2 0xA78 JUMP JUMPDEST SWAP2 POP PUSH2 0x118B DUP3 PUSH2 0x114C JUMP JUMPDEST PUSH1 0x20 DUP3 ADD SWAP1 POP SWAP2 SWAP1 POP JUMP JUMPDEST PUSH0 PUSH1 0x20 DUP3 ADD SWAP1 POP DUP2 DUP2 SUB PUSH0 DUP4 ADD MSTORE PUSH2 0x11AD DUP2 PUSH2 0x1174 JUMP JUMPDEST SWAP1 POP SWAP2 SWAP1 POP JUMP JUMPDEST PUSH0 DUP2 SWAP1 POP SWAP3 SWAP2 POP POP JUMP JUMPDEST PUSH0 PUSH2 0x11C8 DUP3 PUSH2 0xB37 JUMP JUMPDEST PUSH2 0x11D2 DUP2 DUP6 PUSH2 0x11B4 JUMP JUMPDEST SWAP4 POP PUSH2 0x11E2 DUP2 DUP6 PUSH1 0x20 DUP7 ADD PUSH2 0xA88 JUMP JUMPDEST DUP1 DUP5 ADD SWAP2 POP POP SWAP3 SWAP2 POP POP JUMP JUMPDEST PUSH0 DUP2 PUSH1 0x60 SHL SWAP1 POP SWAP2 SWAP1 POP JUMP JUMPDEST PUSH0 PUSH2 0x1204 DUP3 PUSH2 0x11EE JUMP JUMPDEST SWAP1 POP SWAP2 SWAP1 POP JUMP JUMPDEST PUSH0 PUSH2 0x1215 DUP3 PUSH2 0x11FA JUMP JUMPDEST SWAP1 POP SWAP2 SWAP1 POP JUMP JUMPDEST PUSH2 0x122D PUSH2 0x1228 DUP3 PUSH2 0xB17 JUMP JUMPDEST PUSH2 0x120B JUMP JUMPDEST DUP3 MSTORE POP POP JUMP JUMPDEST PUSH0 PUSH2 0x123E DUP3 DUP7 PUSH2 0x1091 JUMP JUMPDEST SWAP2 POP PUSH2 0x124A DUP3 DUP6 PUSH2 0x11BE JUMP JUMPDEST SWAP2 POP PUSH2 0x1256 DUP3 DUP5 PUSH2 0x121C JUMP JUMPDEST PUSH1 0x14 DUP3 ADD SWAP2 POP DUP2 SWAP1 POP SWAP5 SWAP4 POP POP POP POP JUMP JUMPDEST PUSH0 DUP2 SWAP1 POP DUP2 PUSH0 MSTORE PUSH1 0x20 PUSH0 KECCAK256 SWAP1 POP SWAP2 SWAP1 POP JUMP JUMPDEST PUSH0 PUSH1 0x20 PUSH1 0x1F DUP4 ADD DIV SWAP1 POP SWAP2 SWAP1 POP JUMP JUMPDEST PUSH0 DUP3 DUP3 SHL SWAP1 POP SWAP3 SWAP2 POP POP JUMP JUMPDEST PUSH0 PUSH1 0x8 DUP4 MUL PUSH2 0x12C3 PUSH32 0xFFFFFFFFFFFFFFFFFFFFFFFFFFFFFFFFFFFFFFFFFFFFFFFFFFFFFFFFFFFFFFFF DUP3 PUSH2 0x1288 JUMP JUMPDEST PUSH2 0x12CD DUP7 DUP4 PUSH2 0x1288 JUMP JUMPDEST SWAP6 POP DUP1 NOT DUP5 AND SWAP4 POP DUP1 DUP7 AND DUP5 OR SWAP3 POP POP POP SWAP4 SWAP3 POP POP POP JUMP JUMPDEST PUSH0 DUP2 SWAP1 POP SWAP2 SWAP1 POP JUMP JUMPDEST PUSH0 DUP2 SWAP1 POP SWAP2 SWAP1 POP JUMP JUMPDEST PUSH0 PUSH2 0x1311 PUSH2 0x130C PUSH2 0x1307 DUP5 PUSH2 0x12E5 JUMP JUMPDEST PUSH2 0x12EE JUMP JUMPDEST PUSH2 0x12E5 JUMP JUMPDEST SWAP1 POP SWAP2 SWAP1 POP JUMP JUMPDEST PUSH0 DUP2 SWAP1 POP SWAP2 SWAP1 POP JUMP JUMPDEST PUSH2 0x132A DUP4 PUSH2 0x12F7 JUMP JUMPDEST PUSH2 0x133E PUSH2 0x1336 DUP3 PUSH2 0x1318 JUMP JUMPDEST DUP5 DUP5 SLOAD PUSH2 0x1294 JUMP JUMPDEST DUP3 SSTORE POP POP POP POP JUMP JUMPDEST PUSH0 SWAP1 JUMP JUMPDEST PUSH2 0x1352 PUSH2 0x1346 JUMP JUMPDEST PUSH2 0x135D DUP2 DUP5 DUP5 PUSH2 0x1321 JUMP JUMPDEST POP POP POP JUMP JUMPDEST JUMPDEST DUP2 DUP2 LT ISZERO PUSH2 0x1380 JUMPI PUSH2 0x1375 PUSH0 DUP3 PUSH2 0x134A JUMP JUMPDEST PUSH1 0x1 DUP2 ADD SWAP1 POP PUSH2 0x1363 JUMP JUMPDEST POP POP JUMP JUMPDEST PUSH1 0x1F DUP3 GT ISZERO PUSH2 0x13C5 JUMPI PUSH2 0x1396 DUP2 PUSH2 0x1267 JUMP JUMPDEST PUSH2 0x139F DUP5 PUSH2 0x1279 JUMP JUMPDEST DUP2 ADD PUSH1 0x20 DUP6 LT ISZERO PUSH2 0x13AE JUMPI DUP2 SWAP1 POP JUMPDEST PUSH2 0x13C2 PUSH2 0x13BA DUP6 PUSH2 0x1279 JUMP JUMPDEST DUP4 ADD DUP3 PUSH2 0x1362 JUMP JUMPDEST POP POP JUMPDEST POP POP POP JUMP JUMPDEST PUSH0 DUP3 DUP3 SHR SWAP1 POP SWAP3 SWAP2 POP POP JUMP JUMPDEST PUSH0 PUSH2 0x13E5 PUSH0 NOT DUP5 PUSH1 0x8 MUL PUSH2 0x13CA JUMP JUMPDEST NOT DUP1 DUP4 AND SWAP2 POP POP SWAP3 SWAP2 POP POP JUMP JUMPDEST PUSH0 PUSH2 0x13FD DUP4 DUP4 PUSH2 0x13D6 JUMP JUMPDEST SWAP2 POP DUP3 PUSH1 0x2 MUL DUP3 OR SWAP1 POP SWAP3 SWAP2 POP POP JUMP JUMPDEST PUSH2 0x1416 DUP3 PUSH2 0xA6E JUMP JUMPDEST PUSH8 0xFFFFFFFFFFFFFFFF DUP2 GT ISZERO PUSH2 0x142F JUMPI PUSH2 0x142E PUSH2 0xC07 JUMP JUMPDEST JUMPDEST PUSH2 0x1439 DUP3 SLOAD PUSH2 0xED0 JUMP JUMPDEST PUSH2 0x1444 DUP3 DUP3 DUP6 PUSH2 0x1384 JUMP JUMPDEST PUSH0 PUSH1 0x20 SWAP1 POP PUSH1 0x1F DUP4 GT PUSH1 0x1 DUP2 EQ PUSH2 0x1475 JUMPI PUSH0 DUP5 ISZERO PUSH2 0x1463 JUMPI DUP3 DUP8 ADD MLOAD SWAP1 POP JUMPDEST PUSH2 0x146D DUP6 DUP3 PUSH2 0x13F2 JUMP JUMPDEST DUP7 SSTORE POP PUSH2 0x14D4 JUMP JUMPDEST PUSH1 0x1F NOT DUP5 AND PUSH2 0x1483 DUP7 PUSH2 0x1267 JUMP JUMPDEST PUSH0 JUMPDEST DUP3 DUP2 LT ISZERO PUSH2 0x14AA JUMPI DUP5 DUP10 ADD MLOAD DUP3 SSTORE PUSH1 0x1 DUP3 ADD SWAP2 POP PUSH1 0x20 DUP6 ADD SWAP5 POP PUSH1 0x20 DUP2 ADD SWAP1 POP PUSH2 0x1485 JUMP JUMPDEST DUP7 DUP4 LT ISZERO PUSH2 0x14C7 JUMPI DUP5 DUP10 ADD MLOAD PUSH2 0x14C3 PUSH1 0x1F DUP10 AND DUP3 PUSH2 0x13D6 JUMP JUMPDEST DUP4 SSTORE POP JUMPDEST PUSH1 0x1 PUSH1 0x2 DUP9 MUL ADD DUP9 SSTORE POP POP POP JUMPDEST POP POP POP POP POP POP JUMP JUMPDEST PUSH0 DUP2 SWAP1 POP DUP2 PUSH0 MSTORE PUSH1 0x20 PUSH0 KECCAK256 SWAP1 POP SWAP2 SWAP1 POP JUMP JUMPDEST PUSH1 0x1F DUP3 GT ISZERO PUSH2 0x152F JUMPI PUSH2 0x1500 DUP2 PUSH2 0x14DC JUMP JUMPDEST PUSH2 0x1509 DUP5 PUSH2 0x1279 JUMP JUMPDEST DUP2 ADD PUSH1 0x20 DUP6 LT ISZERO PUSH2 0x1518 JUMPI DUP2 SWAP1 POP JUMPDEST PUSH2 0x152C PUSH2 0x1524 DUP6 PUSH2 0x1279 JUMP JUMPDEST DUP4 ADD DUP3 PUSH2 0x1362 JUMP JUMPDEST POP POP JUMPDEST POP POP POP JUMP JUMPDEST PUSH2 0x153D DUP3 PUSH2 0xB37 JUMP JUMPDEST PUSH8 0xFFFFFFFFFFFFFFFF DUP2 GT ISZERO PUSH2 0x1556 JUMPI PUSH2 0x1555 PUSH2 0xC07 JUMP JUMPDEST JUMPDEST PUSH2 0x1560 DUP3 SLOAD PUSH2 0xED0 JUMP JUMPDEST PUSH2 0x156B DUP3 DUP3 DUP6 PUSH2 0x14EE JUMP JUMPDEST PUSH0 PUSH1 0x20 SWAP1 POP PUSH1 0x1F DUP4 GT PUSH1 0x1 DUP2 EQ PUSH2 0x159C JUMPI PUSH0 DUP5 ISZERO PUSH2 0x158A JUMPI DUP3 DUP8 ADD MLOAD SWAP1 POP JUMPDEST PUSH2 0x1594 DUP6 DUP3 PUSH2 0x13F2 JUMP JUMPDEST DUP7 SSTORE POP PUSH2 0x15FB JUMP JUMPDEST PUSH1 0x1F NOT DUP5 AND PUSH2 0x15AA DUP7 PUSH2 0x14DC JUMP JUMPDEST PUSH0 JUMPDEST DUP3 DUP2 LT ISZERO PUSH2 0x15D1 JUMPI DUP5 DUP10 ADD MLOAD DUP3 SSTORE PUSH1 0x1 DUP3 ADD SWAP2 POP PUSH1 0x20 DUP6 ADD SWAP5 POP PUSH1 0x20 DUP2 ADD SWAP1 POP PUSH2 0x15AC JUMP JUMPDEST DUP7 DUP4 LT ISZERO PUSH2 0x15EE JUMPI DUP5 DUP10 ADD MLOAD PUSH2 0x15EA PUSH1 0x1F DUP10 AND DUP3 PUSH2 0x13D6 JUMP JUMPDEST DUP4 SSTORE POP JUMPDEST PUSH1 0x1 PUSH1 0x2 DUP9 MUL ADD DUP9 SSTORE POP POP POP JUMPDEST POP POP POP POP POP POP JUMP JUMPDEST PUSH0 PUSH2 0x160E DUP3 DUP5 PUSH2 0x11BE JUMP JUMPDEST SWAP2 POP DUP2 SWAP1 POP SWAP3 SWAP2 POP POP JUMP JUMPDEST PUSH0 PUSH1 0x20 DUP3 ADD SWAP1 POP DUP2 DUP2 SUB PUSH0 DUP4 ADD MSTORE PUSH2 0x1631 DUP2 DUP5 PUSH2 0xAC0 JUMP JUMPDEST SWAP1 POP SWAP3 SWAP2 POP POP JUMP JUMPDEST PUSH0 PUSH2 0x1644 DUP3 DUP5 PUSH2 0x1091 JUMP JUMPDEST SWAP2 POP DUP2 SWAP1 POP SWAP3 SWAP2 POP POP JUMP INVALID LOG2 PUSH5 0x6970667358 0x22 SLT KECCAK256 SWAP9 PUSH10 0xC5728F6319472962C98A PUSH4 0x619C44A7 CALLCODE EXTCODEHASH ORIGIN PUSH15 0xBDA7B95796C4F44CE304EF64736F6C PUSH4 0x43000816 STOP CALLER "
		},
		"gasEstimates": {
			"creation": {
				"codeDepositCost": "1153000",
				"executionCost": "1198",
				"totalCost": "1154198"
			},
			"external": {
				"contentRecords(bytes20)": "infinite",
				"getVerificationStatus(bytes20)": "infinite",
				"storeContent(string,bytes,address)": "infinite",
				"verifyContent(string,bytes,address)": "infinite"
			}
		},
		"methodIdentifiers": {
			"contentRecords(bytes20)": "5a9ac43f",
			"getVerificationStatus(bytes20)": "7393eeb4",
			"storeContent(string,bytes,address)": "b2f6fe6f",
			"verifyContent(string,bytes,address)": "bf773100"
		}
	},
	"abi": [
		{
			"anonymous": false,
			"inputs": [
				{
					"indexed": true,
					"internalType": "bytes",
					"name": "signature",
					"type": "bytes"
				},
				{
					"indexed": false,
					"internalType": "string",
					"name": "cid",
					"type": "string"
				},
				{
					"indexed": true,
					"internalType": "address",
					"name": "userAddress",
					"type": "address"
				},
				{
					"indexed": true,
					"internalType": "bytes20",
					"name": "verificationId",
					"type": "bytes20"
				}
			],
			"name": "ContentStored",
			"type": "event"
		},
		{
			"inputs": [
				{
					"internalType": "bytes20",
					"name": "",
					"type": "bytes20"
				}
			],
			"name": "contentRecords",
			"outputs": [
				{
					"internalType": "string",
					"name": "cid",
					"type": "string"
				},
				{
					"internalType": "address",
					"name": "userAddress",
					"type": "address"
				},
				{
					"internalType": "bytes",
					"name": "signature",
					"type": "bytes"
				}
			],
			"stateMutability": "view",
			"type": "function"
		},
		{
			"inputs": [
				{
					"internalType": "bytes20",
					"name": "_verificationId",
					"type": "bytes20"
				}
			],
			"name": "getVerificationStatus",
			"outputs": [
				{
					"internalType": "bool",
					"name": "",
					"type": "bool"
				}
			],
			"stateMutability": "view",
			"type": "function"
		},
		{
			"inputs": [
				{
					"internalType": "string",
					"name": "_cid",
					"type": "string"
				},
				{
					"internalType": "bytes",
					"name": "_signature",
					"type": "bytes"
				},
				{
					"internalType": "address",
					"name": "_userAddress",
					"type": "address"
				}
			],
			"name": "storeContent",
			"outputs": [],
			"stateMutability": "nonpayable",
			"type": "function"
		},
		{
			"inputs": [
				{
					"internalType": "string",
					"name": "_cid",
					"type": "string"
				},
				{
					"internalType": "bytes",
					"name": "_signature",
					"type": "bytes"
				},
				{
					"internalType": "address",
					"name": "_userAddress",
					"type": "address"
				}
			],
			"name": "verifyContent",
			"outputs": [
				{
					"internalType": "bytes20",
					"name": "",
					"type": "bytes20"
				}
			],
			"stateMutability": "view",
			"type": "function"
		}
	]
}